:100000000C9434000C943E000C943E000C943E0082
:100010000C943E000C943E000C943E000C943E0068
:100020000C943E000C943E000C943E000C943E0058
:100030000C943E000C943E000C943E000C943E0048
:100040000C943E000C943E000C943E000C943E0038
:100050000C943E000C943E000C943E000C943E0028
:100060000C943E000C943E0011241FBECFEFD8E04C
:10007000DEBFCDBF0E94D3000C94DF000C940000C3
:100080002A982998883051F46BB9289A2FEF81EE7D
:1000900094E0215080409040E1F725C08BB18F70F3
:1000A0008BB98BB1962F907F892B8BB9289A2FEF24
:1000B00081EE94E0215080409040E1F700C00000C4
:1000C000289820E1629FB00111248BB18F708BB909
:1000D0008BB1682B6BB9289A8FEF91EE24E0815099
:1000E00090402040E1F700C0000028980895CF9389
:1000F000C82F2FEF89EF90E0215080409040E1F72A
:1001000000C00000C83019F468E388E002C068E26B
:100110008C2F0E94400066E08C2F0E94400061E01E
:100120008C2F0E94400062E08C2F0E9440006CE007
:100130008C2FCF910C9440002A9A2998883051F442
:100140006BB9289A2FEF81EE94E0215080409040C7
:10015000E1F725C08BB18F708BB98BB1962F907F53
:10016000892B8BB9289A2FEF81EE94E021508040A3
:100170009040E1F700C00000289820E1629FB001A4
:1001800011248BB18F708BB98BB1682B6BB9289A06
:100190008FEF91EE24E0815090402040E1F700C0C5
:1001A000000028980895259A2D9823982B9883B1BC
:1001B0008870882311F02D9AFCCF2D98F8CFF894F1
:0201C000FFCF6F
:00000001FF
