:100000000C9434000C9449000C9449000C94490061
:100010000C9449000C9449000C9449000C9449003C
:100020000C9449000C9449000C9449000C9449002C
:100030000C9449000C9449000C9449000C9449001C
:100040000C9449000C9449000C9449000C9449000C
:100050000C9449000C9449000C9449000C944900FC
:100060000C9449000C94490011241FBECFEFD8E036
:10007000DEBFCDBF11E0A0E0B1E0ECE9F1E002C0ED
:1000800005900D92A032B107D9F70E9481000C941F
:10009000CC000C9400002A9829988BB9289A2FEF4D
:1000A00081EE94E0215080409040E1F700C00000D4
:1000B000289808952FEF89EF90E0215080409040DC
:1000C000E1F700C0000088E30E944B0086E00E9438
:1000D0004B0081E00E944B0082E00E944B008CE0CC
:1000E0000C944B002A9A29988BB9289A2FEF81EE0D
:1000F00094E0215080409040E1F700C00000289833
:100100000895DF92EF92FF920F931F93CF93DF93A7
:10011000CDB7DEB76F970FB6F894DEBF0FBECDBF79
:100120008FE1E0E0F1E0DE01119601900D928A95F9
:10013000E1F784B1876084B98AB18FEF8AB90E94F0
:100140005A0081E40E9472008E010F5F1F4FE12C64
:10015000F12CF801D1908F01DD2071F080E1E816DB
:10016000F10419F480EC0E944B008D2D0E94720066
:10017000EFEFEE1AFE0AEDCF80E090E06F960FB63B
:10018000F894DEBF0FBECDBFDF91CF911F910F91CD
:0C019000FF90EF90DF900895F894FFCFEF
:10019C0048656C6C6F20576F726C642021212E2087
:1001AC0054686973206973205455534841520000B8
:00000001FF
