:100000000C9434000C9449000C9449000C94490061
:100010000C9449000C9449000C9449000C9449003C
:100020000C9449000C9449000C9449000C9449002C
:100030000C9449000C9449000C9449000C9449001C
:100040000C9449000C9449000C9449000C9449000C
:100050000C9449000C9449000C9449000C944900FC
:100060000C9449000C94490011241FBECFEFD8E036
:10007000DEBFCDBF11E0A0E0B1E0EAE6F2E002C0F1
:1000800005900D92A631B107D9F70E94E8000C94B3
:1000900033010C9400002A982998883051F46BB9E8
:1000A000289A2FEF81EE94E0215080409040E1F7B4
:1000B00025C08BB18F708BB98BB1962F907F892B18
:1000C0008BB9289A2FEF81EE94E021508040904028
:1000D000E1F700C00000289820E1629FB0011124E0
:1000E0008BB18F708BB98BB1682B6BB9289A8FEF5E
:1000F00091EE24E0815090402040E1F700C00000E4
:1001000028980895CF93DF932FEF39EF90E0215097
:1001100030409040E1F700C00000C82FD0E08830A8
:1001200029F468E370E088E090E003C068E270E0E2
:10013000CE010E944B0066E070E0CE010E944B00B1
:1001400061E070E0CE010E944B0062E070E0CE0101
:100150000E944B006CE070E0CE01DF91CF910C94D7
:100160004B002A9A2998883051F46BB9289A2FEFBE
:1001700081EE94E0215080409040E1F725C08BB1A2
:100180008F708BB98BB1962F907F892B8BB9289A62
:100190002FEF81EE94E0215080409040E1F700C0C5
:1001A0000000289820E1629FB00111248BB18F706C
:1001B0008BB98BB1682B6BB9289A8FEF91EE24E045
:1001C000815090402040E1F700C000002898089539
:1001D000DF92EF92FF920F931F93CF93DF93CDB7F0
:1001E000DEB765970FB6F894DEBF0FBECDBF85E1D1
:1001F000E0E0F1E0DE01119601900D928A95E1F7C1
:1002000084B1876084B98AB18FEF8AB984E00E9493
:1002100082008E010F5F1F4FE12CF12CF801D1906D
:100220008F01DD2081F080E1E816F10421F460EC1B
:1002300084E00E944B006D2D84E00E94B100EFEF3E
:10024000EE1AFE0AEBCF80E090E065960FB6F894C8
:10025000DEBF0FBECDBFDF91CF911F910F91FF90F9
:0A026000EF90DF900895F894FFCFAF
:10026A0070757420616E79206D657373616765209E
:06027A00686572650000DA
:00000001FF
